:04000000FEEF3FF0E0
:107874003F01AC8F1200600E3901D96FDB6BDD6BF9
:10788400080EDF6FDE6B12003D01156B020E166FE2
:10789400196B050E1C6F830E146F830C800E6E6FB4
:1078A400040E6D6FC00E6C6F5F51FC0B01095F6FAE
:1078B400120000EE60F0300EEE6AE806FDE1000E04
:1078C400F86E0001C2EF3DF03F01AC6B010EAE6FEC
:1078D400AD6BAF6B090EAB6FAA6B3901A4953AEF90
:1078E4003CF0FFEC3CF03DEC3CF0C5EC3CF081ECB2
:1078F4003CF066EC3CF050EC3CF046EF3CF03C01D4
:107904006B6B180E6C6F2C0E6D6F2B0E6E6F6F6B96
:10791400080E706F220E716F726B736B800E6A6F3C
:10792400800C015003026F00CCFF05F06F00D0FF04
:1079340006F001500402F350062602500302F350ED
:107944000626600014F001F0600018F002F0120046
:10795400600054F001F0600058F002F060005CF048
:1079640003F0600060F004F041EC3DF0600004F0CE
:1079740015F0600008F016F060000CF017F06000DD
:1079840010F018F012003B01FC6B600EF96F000E52
:10799400FA6F000EFB6F3D0EF16F110EF06FE70EE4
:1079A400FD17FD51F90B0209FD6F3F0EFD17F86B32
:1079B400300EF76FEF6B010EEE6FFD81FD9B150E20
:1079C400FF6FFE6BFC9D3901550EEF6FAA0EEF6F32
:1079D400EF91030E3901F26F020EF16FF36B010E9A
:1079E400F46F040EF76F3901550EEF6FAA0EEF6FA7
:1079F400EF813B01FC8FFC8BAA0C3F01BA6BBB6B84
:107A0400BC6BF70EC26FC369D70EC46FE70E3A01A1
:107A1400606F5069FE0E406F080E816F51694169B5
:107A24006169426B526B626B000E3F01D2BF010E63
:107A3400016ED29F550E3A01BF6FAA0EBF6FBF9160
:107A4400DF51E00B1409DF6F1E0E136FE00ED91720
:107A5400DE51E00B1309DE6F020E156FCA51E00B05
:107A64001309CA6F550EBF6FAA0EBF6FBF8101A065
:107A740003D03F01D28FAA0C3F01D29F12006000B5
:107A840004F009F0600008F00AF060000CF00BF05C
:107A9400600010F00CF00D6A0E6A0F6A106A116A29
:107AA400400E126E136A146A05D0020E056E62D877
:107AB400052EFDD71150095C12500A5813500B586B
:107AC40014500C5838E2F1D748D80550095C0650D8
:107AD4000A5807500B5808500C5823E33ED8051E8B
:107AE400061E071E081E052A000E0622072208226B
:107AF4000550092606500A2207500B2208500C2272
:107B0400D8901134056E1234066E1334076E143493
:107B1400086E05500D2606500E2207500F220850FD
:107B24001022D89010320F320E320D32020E056E32
:107B340021D8052EFDD71150121013101410C4E1D2
:107B4400600034F001F0600038F002F060003CF0B6
:107B540003F0600040F004F0120011500D24056E93
:107B640012500E20066E13500F20076E1450102072
:107B7400086E1200D89014321332123211321200ED
:107B8400216A226A236A246A256A266A73EC3CF015
:107B9400436A19DA11DA610F0FDA620FD96EDA6A01
:107BA400DF6A432A0F0E4364F4D73D011A83D00ED3
:107BB400196ECA0EE82EFED7192EFCD73D6A3E6A0E
:107BC400376A386A276828682A6A010E296E2B6A80
:107BD4002C6A396A3A6A2E6A010E2D6E306A2F6E4B
:107BE400316A326A3C6A100E3B6E346A010E336E9F
:107BF40035683668090E1A6E1E0E196EE40EE82EEC
:107C0400FED7192EFCD71A2EFAD700D03F01BA8717
:107C14003F6A406A40BE08D0405005E1040E3F5C14
:107C240001E39CD001D09AD0416A426A42BE08D096
:107C3400425005E1040E415C01E38DD001D08BD0AC
:107C4400A7D93D50195C446E3E5093D993EC3CF057
:107C54006ED93750195C466E38507CD993EC3CF0A1
:107C64004ED9AAEC3CF0600054F01BF0600058F0D0
:107C74001CF01B501008216E1C50D8A0E82A0008E4
:107C8400226E22AE02D0216A226A82D92B50195C5C
:107C9400446E2C506ED993EC3CF049D93950195CA0
:107CA400466E3A5057D993EC3CF029D9AAEC3CF0F3
:107CB400600054F01DF0600058F01EF01D501008D4
:107CC400236E1E50D8A0E82A0008246E24AE02D0E9
:107CD400236A246A5DD93150195C446E325049D903
:107CE40093EC3CF024D93B50195C466E3C5032D99D
:107CF40093EC3CF004D9AAEC3CF0600054F01FF083
:107D0400600058F020F01F501008256E2050D8A0B5
:107D1400E82A0008266E26AE02D0256A266A3F505D
:107D2400040DF3504124436E4ED9D96EDA6A2150C2
:107D34000A0D3BD9620FD96EDA6A23500A0D35D980
:107D4400610FD96EDA6A25500A0D6F00CFFFDFFF8D
:107D5400414A422A6BD73F4A402A5CD73ED93EBEAD
:107D640005D03E500AE1200E3D5C07E23EAE16D03F
:107D7400F10E3D5CFF0E3E5811E260009CF001F0F4
:107D84006000A0F002F00468036893EC3CF060002B
:107D940004F027F0600008F028F01FD919D938BE84
:107DA40005D038500AE1200E375C07E238AE16D011
:107DB400F10E375CFF0E385811E26000A4F001F0B8
:107DC4006000A8F002F00468036893EC3CF06000E3
:107DD40004F029F0600008F02AF0FAD82D502B2680
:107DE4002E502C222CBE05D02C500AE1200E2B5CE8
:107DF40007E22CAE19D0ED0E2B5CFF0E2C5814E2CA
:107E04006000B4F001F06000B8F002F004680368A8
:107E140093EC3CF0600004F02DF0600008F02EF0CC
:107E24002D503D262E503E22DDD83ABE05D03A5084
:107E34000AE1200E395C07E23AAE16D0ED0E395C49
:107E4400FF0E3A5811E26000BCF001F06000C0F08F
:107E540002F00468036893EC3CF0600004F02FF037
:107E6400600008F030F0BED833503126345032224E
:107E740032BE05D032500AE1200E315C07E232AE48
:107E840019D0E90E315CFF0E325814E26000CCF0D8
:107E940001F06000D0F002F00468036893EC3CF059
:107EA400600004F033F0600008F034F033503D26F5
:107EB40034503E229CD83CBE05D03C500AE1200EF2
:107EC4003B5C07E23CAE16D0E90E3B5CFF0E3C582F
:107ED40011E26000D4F001F06000D8F002F0046810
:107EE400036893EC3CF0600004F035F0600008F0A7
:107EF40036F07DD83F01BA973B01FC8D7BD66000FC
:107F040004F046F0600008F047F046504424196E2F
:107F1400475045201A6E600064F015F0600068F068
:107F240016F0000E16BEFF0E176E186E12006000DB
:107F340004F044F0600008F045F0600004F119F02A
:107F4400600008F11AF0D89019361A36D89019360C
:107F54001A3612001A58476E600018F101F06000DA
:107F64001CF102F0600018F103F060001CF104F051
:107F740012001A58456E600010F101F0600014F10F
:107F840002F0600010F103F0600014F104F012003C
:107F94006000FCF019F0600000F11AF0D890193676
:107FA4001A36D89019361A3612006F00CFFFDFFF49
:107FB4004350030DF3501200D96EDA6ADF6A43505E
:107FC400030DF35012004350030DF350600F1200E1
:107FD400295037262A503822120027503D2628508F
:107FE4003E2212002F50392630503A2212003550CA
:0C7FF4003B2636503C2212005BEF3CF0B4
:020000040020DA
:10000000FF0FFF0FFF0FFF0FFF0FFF0FFF0FFF0F80
:020000040030CA
:0A0000008CFFF7FF9FFFFFFFFFFFDB
:00000001FF
